:10000000A0C00000B9C00000B7C00000B5C000002B
:10001000B3C00000B1C00000AFC00000ADC0000020
:10002000ABC00000A9C00000A7C000001BC40000B6
:10003000A3C00000A1C000009FC000009DC0000040
:100040009BC0000099C0000097C0000095C0000050
:1000500093C0000091C000008FC0000079C1000073
:100060008BC0000089C0000087C0000085C0000070
:1000700083C0000081C000007FC000007DC0000080
:100080007BC0000079C0000077C0000075C0000090
:1000900073C0000071C000001201100100000008D0
:1000A000EB03482000000102000109026500020183
:1000B00000C0320904000000010100000924010011
:1000C00001090001010904010002010300000724E5
:1000D000010001410006240201010006240202027F
:1000E00000092403010301020100092403020401A1
:1000F0000101000905010240000000000525010181
:1001000001090582024000000000052501010304E9
:100110000309041003410072006400750069006E59
:10012000006F0000001A034100720064007500694E
:10013000006E006F0020004D00490044004900009F
:10014000000011241FBECFEFD2E0DEBFCDBF11E013
:10015000A0E0B1E0ECEAFDE002C005900D92AA300B
:10016000B107D9F711E0AAE0B1E001C01D92AC39A6
:10017000B107E1F758D018C643CF9BB18095906383
:1001800089238BB90895BF92CF92DF92EF92FF92AD
:100190000F931F93CF93DF9384B7877F84BF28E1AA
:1001A0000FB6F89420936000109260000FBE3CECF4
:1001B000C32ED12C88E090E0F601918380839AECE5
:1001C000E92EF12C86E0B82EF701B08208EC10E0A1
:1001D000F8011082C9ECD0E02883539A5A9A8AB168
:1001E00080638AB98BB180638BB931D384E085BDDC
:1001F0001882F8011082F701108280E190E0F60188
:1002000091838083F701B08282E0F801808388E9DE
:100210008883DF91CF911F910F91FF90EF90DF9036
:10022000CF90BF9008958F929F92AF92BF92CF923E
:10023000DF92EF92FF920F931F93DF93CF93CDB78F
:10024000DEB728970FB6F894DEBF0FBECDBF9BDF99
:100250008FB7F8946AE0C62E61E0D62ED0928B015B
:10026000C0928A01D0928D01C0928C018FBF80E232
:1002700084DF789400E010E055E0A52EB12CAC0EA0
:10028000BD1E49E0842E912C8C0E9D1E7E0108948B
:10029000E11CF11CC601DC2CC92E9FB7F89480919B
:1002A0008E019FBF8430C0F1D501E0918C01F091A7
:1002B0008D019191F0938D01E0938C0181E0EA38FA
:1002C000F80721F4D0928C01C0928D012FB7F894D9
:1002D00080918E01815080938E012FBF9D93A81530
:1002E000B90519F79D81892F82958F7089838E8139
:1002F00081508F70907F892B8A838F818B83888533
:100300008C8380E091E0B701F6D480E091E015D5D0
:100310005D9800E117E203C00115110521F00150BD
:10032000104009F45D9A80E091E0B7011CD59AD4A1
:10033000B4CF80E122CF80E220CF80E11EDF80E0D9
:1003400091E0A3D4882311F480E317CF0895089592
:100350001F920F920FB60F9211242F938F939F939A
:10036000EF93FF938091CE0090919301943031F5FB
:100370002FB7F89490918E012FBF9038F9F0E0914B
:100380008A01F0918B018083E0918A01F0918B01C9
:10039000CF01019690938B0180938A0121E08A38E6
:1003A000920721F48AE091E0928381839FB7F894C9
:1003B00080918E018F5F80938E019FBFFF91EF919F
:1003C0009F918F912F910F900FBE0F901F901895B6
:1003D000923029F0933041F09130F9F419C025E6BC
:1003E00030E0EAEAF0E01DC0813049F0813018F0D9
:1003F000823099F408C0EFE0F1E0249107C0E3E116
:10040000F1E0249103C0E5E2F1E0249130E009C07D
:1004100022E130E0E8E9F0E004C020E030E0E0E094
:10042000F0E0DA011196FC93EE93C901089528E0FB
:1004300030E040E003C04F5F220F331F2817390719
:10044000D0F3842F8295807F08958093E900EBEEAE
:10045000F0E0808181608083EDEEF0E010826093B7
:10046000EC0040838091EE00881F8827881F089544
:100470001092F40080E08093E9001092F000109256
:10048000E8001092ED009091EB009E7F9093EB00BE
:100490008F5F853081F708958091940187FF13C0A5
:1004A00004C0809193018823B9F08091E80082FF15
:1004B000F8CF8091E8008B778093E80008958091D1
:1004C0009301882349F08091E80080FFF8CF809164
:1004D000E8008E778093E800089584E69091EC0020
:1004E00090FF05C09091E80090FF05C01DC090915D
:1004F000E80092FD19C0909193019923B9F0909171
:1005000093019530A9F09091EB0095FD13C0909167
:10051000E10092FFE3CF9091E1009B7F9093E10097
:10052000882351F08150DACF80E0089582E0089569
:1005300083E0089581E0089584E00895AF92BF922A
:10054000DF92EF92FF920F931F93DF93CF930F925F
:10055000CDB7DEB7082F5B017A019983BEDFD82EB5
:100560009981882331F5192F1CC08091E80085FD01
:1005700010C08091E8008E778093E800E114F104C8
:1005800021F0F7010995813081F0A7DF882349F038
:100590000FC0F80181918F018093F1000894A108A8
:1005A000B108A114B10409F704C075E0D72E01C049
:1005B000D82E8D2D0F90CF91DF911F910F91FF902D
:1005C000EF90DF90BF90AF900895AF92BF92DF920F
:1005D000EF92FF920F931F93DF93CF930F92CDB7BC
:1005E000DEB7082F5B017A01998377DFD82E9981D6
:1005F000882331F5192F1CC08091E80085FD10C0BB
:100600008091E8008B778093E800E114F10421F0F9
:10061000F7010995813081F060DF882349F00FC030
:100620008091F100F80181938F010894A108B1082D
:10063000A114B10409F704C005E0D02E01C0D82EE2
:100640008D2D0F90CF91DF911F910F91FF90EF9023
:10065000DF90BF90AF900895282F392FF901809136
:100660009A0190919B018617970718F4BC0190E0BE
:1006700034C061157105D9F78091E8008E778093B9
:10068000E800F5CF8091E80083FD3BC08091E80051
:1006900082FD31C0809193018823B9F1809193014B
:1006A000853089F18091E80080FF17C08091F200C9
:1006B00006C091919093F100615070408F5F611579
:1006C000710511F08830A8F391E0883009F090E0CE
:1006D0008091E8008E778093E8006115710591F6AE
:1006E000992381F608C080919301882371F080914D
:1006F0009301853061F08091E80082FFF4CF80E0C3
:10070000089581E0089583E0089582E0089583E0EC
:100710000895282F392FC90120919A0130919B010A
:100720002617370718F4B90130E036C06115710596
:10073000D9F72091E8002E772093E800F5CF20919B
:10074000E80023FD3DC02091E80022FD33C0209148
:1007500093012223C9F120919301253099F1209131
:10076000E80020FF19C02091F20008C0FC010196AA
:10077000E491E093F100615070402F5F61157105C5
:1007800011F0283098F331E0283009F030E0209162
:10079000E8002E772093E8006115710581F6332378
:1007A00071F608C080919301882371F080919301C4
:1007B000853061F08091E80082FFF4CF80E00895F9
:1007C00081E0089583E0089582E0089583E008952C
:1007D00043D045D010929301109291011092900154
:1007E00010928F0184E089BD89B5826089BD09B40A
:1007F00000FEFDCF8091D800982F9F779093D8006E
:1008000080688093D800809163008E7F809363001E
:100810008091D8008F7D8093D8008091E0008E7FFA
:100820008093E0008091E1008E7F8093E1008091D1
:10083000E20081608093E2008091E100877F8093F5
:10084000E1008091E20088608093E2000895C0DFBB
:1008500081E08093920108951092E2000895109231
:10086000E10008951F920F920FB60F9211242F935B
:100870003F934F935F936F937F938F939F93AF9328
:10088000BF93EF93FF938091E10080FF1CC08091A4
:10089000E20080FF18C08091E1008E7F8093E1002C
:1008A0008091E2008E7F8093E2008091E20080617F
:1008B0008093E2008091D80080628093D80019BCB8
:1008C0001092930138DD8091E10084FF2AC080916D
:1008D000E20084FF26C084E089BD89B5826089BDBD
:1008E00009B400FEFDCF8091D8008F7D8093D800A1
:1008F0008091E1008F7E8093E1008091E2008F7E05
:100900008093E2008091E20081608093E200809118
:100910009101882311F084E001C081E0809393016C
:1009200008DD8091E10083FF23C08091E20083FF16
:100930001FC08091E100877F8093E10082E0809377
:100940009301109291018091E1008E7F8093E100EC
:100950008091E2008E7F8093E2008091E2008061CE
:100960008093E20085DD80E060E042E06EDD79D1D9
:100970008091E10082FF0AC08091E20082FF06C000
:100980008091E1008B7F8093E1006BD1FF91EF912B
:10099000BF91AF919F918F917F916F915F914F9197
:1009A0003F912F910F900FBE0F901F9018951F939E
:1009B000DF93CF93CDB7DEB7AC970FB6F894DEBF19
:1009C0000FBECDBFE4E9F1E08091F100819321E019
:1009D000EC39F207C9F780919401209195012530F7
:1009E00009F484C0263040F42130A1F1213070F0A8
:1009F000233009F01DC12EC0283009F4EEC0293083
:100A000009F4FDC0263009F013C190C0803821F0F0
:100A1000823809F00DC108C080918F01909190013A
:100A2000992371F082600CC0809198018770809347
:100A3000E9009091EB0081E095FF80E01092E900E1
:100A40009091E800977F9093E8008093F1001092D6
:100A5000F100CEC0882319F0823009F0E9C090E09F
:100A60008F719070009729F08230910509F0E1C0F4
:100A70000BC080919601813009F0DBC0233009F072
:100A800080E0809390012CC080919601882341F5ED
:100A900020919801277009F4CCC02093E90080913F
:100AA000EB0080FFC6C080919501833021F48091D6
:100AB000EB00806213C08091EB0080618093EB00BB
:100AC00081E090E002C0880F991F2A95E2F7809399
:100AD000EA001092EA008091EB0088608093EB00BE
:100AE0001092E9008091E800877F85C0882309F093
:100AF0009FC0109196018091E800877F8093E80065
:100B0000CBDC05C080919301882309F492C08091C9
:100B1000E80080FFF7CF1F7711F083E001C082E08B
:100B20008093930110681093E30083C08058823053
:100B300008F07EC0809196019091970123E08C3D52
:100B4000920799F583E08C838AE28B833FB7F89410
:100B5000DE01159680E090E02EE041E2E22FF0E029
:100B600040935700E49180FF03C0E295EF702F5F40
:100B7000EF705E2F505D5A3310F0E95C01C0E52F35
:100B8000EC9311961C92119712960196843191055F
:100B900029F73FBF8091E800877F8093E800CE016E
:100BA00003966AE270E058DD12C060919801AE01D0
:100BB0004F5F5F4F0DDCBC01009709F43AC0809194
:100BC000E800877F8093E80089819A81A2DD809187
:100BD000E8008B778093E8002CC0803849F580913D
:100BE000E800877F8093E800809191018093F10075
:100BF0008091E8008E778093E8004EDC1AC088234D
:100C0000B9F4909196019230A0F48091E800877F2A
:100C10008093E800909391013FDC809191018823BB
:100C200011F084E001C083E08093930186DB01C072
:100C30008EDB8091E80083FF0AC08091EB00806228
:100C40008093EB008091E800877F8093E800AC966A
:100C50000FB6F894DEBF0FBECDBFCF91DF911F91CD
:100C6000089508951F9380919301882361F0109156
:100C7000E90017701092E9008091E80083FF01C03D
:100C800096DE1093E9001F9108950F931F93CF9361
:100C9000DF93EC011981112391F02A813B818C8132
:100CA000882311F004E001C000E0C901C0DB402F3F
:100CB000482B4260812F61E8C8DB8130A1F41D819F
:100CC000112399F02E813F818885882311F004E05B
:100CD00001C000E0C901ABDB402F482B4260812FEF
:100CE00060E8B3DB03C080E001C081E0DF91CF9119
:100CF0001F910F910895FC01CB01209193012430A5
:100D0000C1F421812093E9002091E80025FF13C060
:100D100064E070E040E050E011DC882369F49091D9
:100D2000E80095FD09C09091E8009E779093E80057
:100D3000089582E0089580E0089520919301243081
:100D400071F4FC0181818093E9008091F200882395
:100D500041F08091E8008E778093E800BECB82E07E
:100D6000089580E00895FC01CB0120919301243087
:100D7000B9F425812093E9002091E80025FF10C0F7
:100D800064E070E040E050E020DC8091E80085FD08
:100D900009C08091E8008B778093E80081E0089596
:0C0DA00080E0089581E00895F894FFCFF2
:0A0DAC0001024000000140000000B9
:00000001FF
